{
  "_info": {
    "comment": "",
    "filledwith": "testeth 1.7.0-alpha.0+commit.fe75b954.dirty",
    "lllcversion": "Version: 0.5.0-develop.2018.11.9+commit.9709dfe0.Linux.g++",
    "source": "src/BlockchainTestsFiller/bcStateTests/randomStatetest391Filler.json",
    "sourceHash": "5abd9f4e4403a9dcb53be47a2b7d0d33aeca0535c5032a9cdcc51bbdafd21853"
  },
  "blocks": [
    {
      "blockHeader": {
        "bloom": "0x00000000000000000000000000000000000000000000000000000000000000000000000000000000000000000000000000000000000000000000000000000000000000000000000000000000000000000000000000000000000000000000000000000000000000000000000000000000000000000000000000000000000000000000000000000000000000000000000000000000000000000000000000000000000000000000000000000000000000000000000000000000000000000000000000000000000000000000000000000000000000000000000000000000000000000000000000000000000000000000000000000000000000000000000000000000",
        "coinbase": "0x945304eb96065b2a98b57a48a06ae28d285a71b5",
        "difficulty": "0x020000",
        "extraData": "",
        "gasLimit": "0x7fe0000000000001",
        "gasUsed": "0x00",
        "hash": "0x2229e4d38dcbfaf9bdf1d455401453633570345b8acf5a092aa88d11c232175a",
        "mixHash": "0x0000000000000000000000000000000000000000000000000000000000000000",
        "nonce": "0x0000000000000000",
        "number": "0x01",
        "parentHash": "0x6bfee7294bf44572b7266358e627f3c35105e1c3851f3de09e6d646f955725a7",
        "receiptTrie": "0x56e81f171bcc55a6ff8345e692c0f86e5b48e01b996cadc001622fb5e363b421",
        "stateRoot": "0x6d78c3ca37d924c05a52f52d40dcce5e44da386fc19dbffc0673fcf2bda628fa",
        "timestamp": "0x5d20ab80",
        "transactionsTrie": "0x56e81f171bcc55a6ff8345e692c0f86e5b48e01b996cadc001622fb5e363b421",
        "uncleHash": "0x1dcc4de8dec75d7aab85b567b6ccd41ad312451b948a7413f0a142fd40d49347"
      },
      "rlp": "0xf90201f901fca06bfee7294bf44572b7266358e627f3c35105e1c3851f3de09e6d646f955725a7a01dcc4de8dec75d7aab85b567b6ccd41ad312451b948a7413f0a142fd40d4934794945304eb96065b2a98b57a48a06ae28d285a71b5a06d78c3ca37d924c05a52f52d40dcce5e44da386fc19dbffc0673fcf2bda628faa056e81f171bcc55a6ff8345e692c0f86e5b48e01b996cadc001622fb5e363b421a056e81f171bcc55a6ff8345e692c0f86e5b48e01b996cadc001622fb5e363b421b90100000000000000000000000000000000000000000000000000000000000000000000000000000000000000000000000000000000000000000000000000000000000000000000000000000000000000000000000000000000000000000000000000000000000000000000000000000000000000000000000000000000000000000000000000000000000000000000000000000000000000000000000000000000000000000000000000000000000000000000000000000000000000000000000000000000000000000000000000000000000000000000000000000000000000000000000000000000000000000000000000000000000000000000000000000000008302000001887fe000000000000180845d20ab8080a00000000000000000000000000000000000000000000000000000000000000000880000000000000000c0c0",
      "transactions": [],
      "uncleHeaders": []
    }
  ],
  "genesisBlockHeader": {
    "bloom": "0x00000000000000000000000000000000000000000000000000000000000000000000000000000000000000000000000000000000000000000000000000000000000000000000000000000000000000000000000000000000000000000000000000000000000000000000000000000000000000000000000000000000000000000000000000000000000000000000000000000000000000000000000000000000000000000000000000000000000000000000000000000000000000000000000000000000000000000000000000000000000000000000000000000000000000000000000000000000000000000000000000000000000000000000000000000000",
    "coinbase": "0x945304eb96065b2a98b57a48a06ae28d285a71b5",
    "difficulty": "0x020000",
    "extraData": "0x42",
    "gasLimit": "0x7fffffffffffffff",
    "gasUsed": "0x00",
    "hash": "0x6bfee7294bf44572b7266358e627f3c35105e1c3851f3de09e6d646f955725a7",
    "mixHash": "0x56e81f171bcc55a6ff8345e692c0f86e5b48e01b996cadc001622fb5e363b421",
    "nonce": "0x0102030405060708",
    "number": "0x00",
    "parentHash": "0x0000000000000000000000000000000000000000000000000000000000000000",
    "receiptTrie": "0x56e81f171bcc55a6ff8345e692c0f86e5b48e01b996cadc001622fb5e363b421",
    "stateRoot": "0x559b226299604989e9f2eeff0da04f12b60466905a4d15661e651b56a60a7f1e",
    "timestamp": "0x03e8",
    "transactionsTrie": "0x56e81f171bcc55a6ff8345e692c0f86e5b48e01b996cadc001622fb5e363b421",
    "uncleHash": "0x1dcc4de8dec75d7aab85b567b6ccd41ad312451b948a7413f0a142fd40d49347"
  },
  "genesisRLP": "0xf901fff901faa00000000000000000000000000000000000000000000000000000000000000000a01dcc4de8dec75d7aab85b567b6ccd41ad312451b948a7413f0a142fd40d4934794945304eb96065b2a98b57a48a06ae28d285a71b5a0559b226299604989e9f2eeff0da04f12b60466905a4d15661e651b56a60a7f1ea056e81f171bcc55a6ff8345e692c0f86e5b48e01b996cadc001622fb5e363b421a056e81f171bcc55a6ff8345e692c0f86e5b48e01b996cadc001622fb5e363b421b90100000000000000000000000000000000000000000000000000000000000000000000000000000000000000000000000000000000000000000000000000000000000000000000000000000000000000000000000000000000000000000000000000000000000000000000000000000000000000000000000000000000000000000000000000000000000000000000000000000000000000000000000000000000000000000000000000000000000000000000000000000000000000000000000000000000000000000000000000000000000000000000000000000000000000000000000000000000000000000000000000000000000000000000000000000000008302000080887fffffffffffffff808203e842a056e81f171bcc55a6ff8345e692c0f86e5b48e01b996cadc001622fb5e363b421880102030405060708c0c0",
  "lastblockhash": "0x2229e4d38dcbfaf9bdf1d455401453633570345b8acf5a092aa88d11c232175a",
  "network": "Byzantium",
  "postState": {
    "0x095e7baea6a6c7c4c2dfeb977efac326af552d87": {
      "balance": "0x0de0b6b3a7640000",
      "code": "0x454143414543424131a4",
      "nonce": "0x00",
      "storage": {}
    },
    "0x945304eb96065b2a98b57a48a06ae28d285a71b5": {
      "balance": "0x29a2241af62c002e",
      "code": "0x6000355415600957005b60203560003555",
      "nonce": "0x00",
      "storage": {}
    },
    "0xa94f5374fce5edbc8e2a8697c15331677e6ebf0b": {
      "balance": "0x0de0b6b3a7640000",
      "code": "",
      "nonce": "0x00",
      "storage": {}
    }
  },
  "pre": {
    "0x095e7baea6a6c7c4c2dfeb977efac326af552d87": {
      "balance": "0x0de0b6b3a7640000",
      "code": "0x454143414543424131a4",
      "nonce": "0x00",
      "storage": {}
    },
    "0x945304eb96065b2a98b57a48a06ae28d285a71b5": {
      "balance": "0x2e",
      "code": "0x6000355415600957005b60203560003555",
      "nonce": "0x00",
      "storage": {}
    },
    "0xa94f5374fce5edbc8e2a8697c15331677e6ebf0b": {
      "balance": "0x0de0b6b3a7640000",
      "code": "",
      "nonce": "0x00",
      "storage": {}
    }
  },
  "sealEngine": "NoProof"
}
