{
  "_info" : {
    "comment" : "Taken from ethereum/tests, SimpleTx3_Byzantium, on 27/09/2018",
    "filledwith" : "cpp-1.3.0+commit.6e0ce939.Linux.g++",
    "lllcversion" : "Version: 0.4.18-develop.2017.9.25+commit.a72237f2.Linux.g++",
    "source" : "src/BlockchainTestsFiller/bcValidBlockTest/SimpleTx3Filler.json",
    "sourceHash" : "373dcc1d6dd499c8b9c23b8b4bd87688e216bc8dea7061bdc26da711c33f59cb"
  },
  "blocks" : [
    {
      "blockHeader" : {
        "bloom" : "0x00000000000000000000000000000000000000000000000000000000000000000000000000000000000000000000000000000000000000000000000000000000000000000000000000000000000000000000000000000000000000000000000000000000000000000000000000000000000000000000000000000000000000000000000000000000000000000000000000000000000000000000000000000000000000000000000000000000000000000000000000000000000000000000000000000000000000000000000000000000000000000000000000000000000000000000000000000000000000000000000000000000000000000000000000000000",
        "coinbase" : "0x8888f1f195afa192cfee860698584c030f4c9db1",
        "difficulty" : "0x020000",
        "extraData" : "",
        "gasLimit" : "0x2fefba",
        "gasUsed" : "0x5208",
        "hash" : "0x9a843b51370ec98baabc087b27273b193cdeac52ff14314b2781b5eb562179b1",
        "mixHash" : "0xe8fbc818dfd6d2f606c65794513dde2e93c5828fda4fea138d1a3ecf49f67115",
        "nonce" : "0xdffdb73abb355e95",
        "number" : "0x01",
        "parentHash" : "0x701327478e9e63cff9633717a6bb288db43cd4027b5b3e9afe76bfec0eac1c8e",
        "receiptTrie" : "0x056b23fbba480696b65fe5a59b8f2148a1299103c4f57df839233af2cf4ca2d2",
        "stateRoot" : "0xc70abbdbb7533542fc237ad6e7f6bdc4cd6c60f865f15bfe88c55ffc6d8c0a0a",
        "timestamp" : "0x59d776fa",
        "transactionsTrie" : "0x53d5b71a8fbb9590de82d69dfa4ac31923b0c8afce0d30d0d8d1e931f25030dc",
        "uncleHash" : "0x1dcc4de8dec75d7aab85b567b6ccd41ad312451b948a7413f0a142fd40d49347"
      },
      "rlp" : "0xf90260f901f9a0701327478e9e63cff9633717a6bb288db43cd4027b5b3e9afe76bfec0eac1c8ea01dcc4de8dec75d7aab85b567b6ccd41ad312451b948a7413f0a142fd40d49347948888f1f195afa192cfee860698584c030f4c9db1a0c70abbdbb7533542fc237ad6e7f6bdc4cd6c60f865f15bfe88c55ffc6d8c0a0aa053d5b71a8fbb9590de82d69dfa4ac31923b0c8afce0d30d0d8d1e931f25030dca0056b23fbba480696b65fe5a59b8f2148a1299103c4f57df839233af2cf4ca2d2b90100000000000000000000000000000000000000000000000000000000000000000000000000000000000000000000000000000000000000000000000000000000000000000000000000000000000000000000000000000000000000000000000000000000000000000000000000000000000000000000000000000000000000000000000000000000000000000000000000000000000000000000000000000000000000000000000000000000000000000000000000000000000000000000000000000000000000000000000000000000000000000000000000000000000000000000000000000000000000000000000000000000000000000000000000000000008302000001832fefba8252088459d776fa80a0e8fbc818dfd6d2f606c65794513dde2e93c5828fda4fea138d1a3ecf49f6711588dffdb73abb355e95f861f85f800a82c35094095e7baea6a6c7c4c2dfeb977efac326af552d870a801ba0f3266921c93d600c43f6fa4724b7abae079b35b9e95df592f95f9f3445e94c88a012f977552ebdb7a492cf35f3106df16ccb4576ebad4113056ee1f52cbe4978c1c0",
      "transactions" : [
        {
          "data" : "",
          "gasLimit" : "0xc350",
          "gasPrice" : "0x0a",
          "nonce" : "0x00",
          "r" : "0xf3266921c93d600c43f6fa4724b7abae079b35b9e95df592f95f9f3445e94c88",
          "s" : "0x12f977552ebdb7a492cf35f3106df16ccb4576ebad4113056ee1f52cbe4978c1",
          "to" : "0x095e7baea6a6c7c4c2dfeb977efac326af552d87",
          "v" : "0x1b",
          "value" : "0x0a"
        }
      ],
      "uncleHeaders" : [
      ]
    }
  ],
  "genesisBlockHeader" : {
    "bloom" : "0x00000000000000000000000000000000000000000000000000000000000000000000000000000000000000000000000000000000000000000000000000000000000000000000000000000000000000000000000000000000000000000000000000000000000000000000000000000000000000000000000000000000000000000000000000000000000000000000000000000000000000000000000000000000000000000000000000000000000000000000000000000000000000000000000000000000000000000000000000000000000000000000000000000000000000000000000000000000000000000000000000000000000000000000000000000000",
    "coinbase" : "0x8888f1f195afa192cfee860698584c030f4c9db1",
    "difficulty" : "0x020000",
    "extraData" : "0x42",
    "gasLimit" : "0x2fefd8",
    "gasUsed" : "0x00",
    "hash" : "0x701327478e9e63cff9633717a6bb288db43cd4027b5b3e9afe76bfec0eac1c8e",
    "mixHash" : "0x56e81f171bcc55a6ff8345e692c0f86e5b48e01b996cadc001622fb5e363b421",
    "nonce" : "0x0102030405060708",
    "number" : "0x00",
    "parentHash" : "0x0000000000000000000000000000000000000000000000000000000000000000",
    "receiptTrie" : "0x56e81f171bcc55a6ff8345e692c0f86e5b48e01b996cadc001622fb5e363b421",
    "stateRoot" : "0x7d883d38bc7a640dd66e5cda78cd01b52a7dc40e61f7c2ddbab7cb3ae3b8b9f2",
    "timestamp" : "0x54c98c81",
    "transactionsTrie" : "0x56e81f171bcc55a6ff8345e692c0f86e5b48e01b996cadc001622fb5e363b421",
    "uncleHash" : "0x1dcc4de8dec75d7aab85b567b6ccd41ad312451b948a7413f0a142fd40d49347"
  },
  "genesisRLP" : "0xf901fcf901f7a00000000000000000000000000000000000000000000000000000000000000000a01dcc4de8dec75d7aab85b567b6ccd41ad312451b948a7413f0a142fd40d49347948888f1f195afa192cfee860698584c030f4c9db1a07d883d38bc7a640dd66e5cda78cd01b52a7dc40e61f7c2ddbab7cb3ae3b8b9f2a056e81f171bcc55a6ff8345e692c0f86e5b48e01b996cadc001622fb5e363b421a056e81f171bcc55a6ff8345e692c0f86e5b48e01b996cadc001622fb5e363b421b90100000000000000000000000000000000000000000000000000000000000000000000000000000000000000000000000000000000000000000000000000000000000000000000000000000000000000000000000000000000000000000000000000000000000000000000000000000000000000000000000000000000000000000000000000000000000000000000000000000000000000000000000000000000000000000000000000000000000000000000000000000000000000000000000000000000000000000000000000000000000000000000000000000000000000000000000000000000000000000000000000000000000000000000000000000000008302000080832fefd8808454c98c8142a056e81f171bcc55a6ff8345e692c0f86e5b48e01b996cadc001622fb5e363b421880102030405060708c0c0",
  "lastblockhash" : "0x9a843b51370ec98baabc087b27273b193cdeac52ff14314b2781b5eb562179b1",
  "network" : "Byzantium",
  "postState" : {
    "0x095e7baea6a6c7c4c2dfeb977efac326af552d87" : {
      "balance" : "0x0a",
      "code" : "",
      "nonce" : "0x00",
      "storage" : {
      }
    },
    "0x49ec3a96efcc4f9e2e741ea2af622b91f74a2bcc" : {
      "balance" : "0x02540be400",
      "code" : "",
      "nonce" : "0x03",
      "storage" : {
      }
    },
    "0x8888f1f195afa192cfee860698584c030f4c9db1" : {
      "balance" : "0x29a2241af62f3450",
      "code" : "",
      "nonce" : "0x00",
      "storage" : {
      }
    },
    "0xa94f5374fce5edbc8e2a8697c15331677e6ebf0b" : {
      "balance" : "0x025408afa6",
      "code" : "",
      "nonce" : "0x01",
      "storage" : {
      }
    },
    "0xe4ccfc7cc4a70f5efd0b87867f20acbf68842ef8" : {
      "balance" : "0x02540be400",
      "code" : "",
      "nonce" : "0x00",
      "storage" : {
      }
    }
  },
  "pre" : {
    "0x49ec3a96efcc4f9e2e741ea2af622b91f74a2bcc" : {
      "balance" : "0x02540be400",
      "code" : "",
      "nonce" : "0x03",
      "storage" : {
      }
    },
    "0xa94f5374fce5edbc8e2a8697c15331677e6ebf0b" : {
      "balance" : "0x02540be400",
      "code" : "",
      "nonce" : "0x00",
      "storage" : {
      }
    },
    "0xe4ccfc7cc4a70f5efd0b87867f20acbf68842ef8" : {
      "balance" : "0x02540be400",
      "code" : "",
      "nonce" : "0x00",
      "storage" : {
      }
    }
  }
}
