{
  "_info": {
    "comment": "",
    "filling-rpc-server": "evm version 1.9.24-unstable-b63e3c37-20201029",
    "filling-tool-version": "retesteth-0.0.9-berlin+commit.60bef1d7.Linux.g++",
    "lllcversion": "Version: 0.5.14-develop.2020.6.22+commit.9189ad7a.Linux.g++",
    "source": "src/BlockchainTestsFiller/ValidBlocks/bcUncleTest/oneUncleFiller.json",
    "sourceHash": "396c657d086823cbc49c8ff0411c5d49c04edb78ef115fc18ae34820f87f5a98"
  },
  "sealEngine": "NoProof",
  "network": "Berlin",
  "pre": {
    "0xa94f5374fce5edbc8e2a8697c15331677e6ebf0b": {
      "balance": "0x09184e72a000",
      "code": "0x",
      "nonce": "0x00",
      "storage": {}
    }
  },
  "genesisBlockHeader": {
    "bloom": "0x00000000000000000000000000000000000000000000000000000000000000000000000000000000000000000000000000000000000000000000000000000000000000000000000000000000000000000000000000000000000000000000000000000000000000000000000000000000000000000000000000000000000000000000000000000000000000000000000000000000000000000000000000000000000000000000000000000000000000000000000000000000000000000000000000000000000000000000000000000000000000000000000000000000000000000000000000000000000000000000000000000000000000000000000000000000",
    "coinbase": "0x8888f1f195afa192cfee860698584c030f4c9db1",
    "difficulty": "0x020000",
    "extraData": "0x42",
    "gasLimit": "0x2fefd8",
    "gasUsed": "0x00",
    "hash": "0x2b253498ad5e63a16978753398bad1fde371a3e513438297b52d65dc98e1db29",
    "mixHash": "0x0000000000000000000000000000000000000000000000000000000000000000",
    "nonce": "0x0000000000000000",
    "number": "0x00",
    "parentHash": "0x0000000000000000000000000000000000000000000000000000000000000000",
    "receiptTrie": "0x56e81f171bcc55a6ff8345e692c0f86e5b48e01b996cadc001622fb5e363b421",
    "stateRoot": "0x7dba07d6b448a186e9612e5f737d1c909dce473e53199901a302c00646d523c1",
    "timestamp": "0x54c98c81",
    "transactionsTrie": "0x56e81f171bcc55a6ff8345e692c0f86e5b48e01b996cadc001622fb5e363b421",
    "uncleHash": "0x1dcc4de8dec75d7aab85b567b6ccd41ad312451b948a7413f0a142fd40d49347"
  },
  "genesisRLP": "0xf901fcf901f7a00000000000000000000000000000000000000000000000000000000000000000a01dcc4de8dec75d7aab85b567b6ccd41ad312451b948a7413f0a142fd40d49347948888f1f195afa192cfee860698584c030f4c9db1a07dba07d6b448a186e9612e5f737d1c909dce473e53199901a302c00646d523c1a056e81f171bcc55a6ff8345e692c0f86e5b48e01b996cadc001622fb5e363b421a056e81f171bcc55a6ff8345e692c0f86e5b48e01b996cadc001622fb5e363b421b90100000000000000000000000000000000000000000000000000000000000000000000000000000000000000000000000000000000000000000000000000000000000000000000000000000000000000000000000000000000000000000000000000000000000000000000000000000000000000000000000000000000000000000000000000000000000000000000000000000000000000000000000000000000000000000000000000000000000000000000000000000000000000000000000000000000000000000000000000000000000000000000000000000000000000000000000000000000000000000000000000000000000000000000000000000000008302000080832fefd8808454c98c8142a00000000000000000000000000000000000000000000000000000000000000000880000000000000000c0c0",
  "blocks": [
    {
      "chainname": "default",
      "blocknumber": "1",
      "uncleHeaders": [],
      "blockHeader": {
        "bloom": "0x00000000000000000000000000000000000000000000000000000000000000000000000000000000000000000000000000000000000000000000000000000000000000000000000000000000000000000000000000000000000000000000000000000000000000000000000000000000000000000000000000000000000000000000000000000000000000000000000000000000000000000000000000000000000000000000000000000000000000000000000000000000000000000000000000000000000000000000000000000000000000000000000000000000000000000000000000000000000000000000000000000000000000000000000000000000",
        "coinbase": "0x8888f1f195afa192cfee860698584c030f4c9db1",
        "difficulty": "0x020000",
        "extraData": "0x42",
        "gasLimit": "0x2fefd8",
        "gasUsed": "0x5208",
        "hash": "0xb2c29779b51f0d912226d7741a5c65046d897236d1254391feac424fa1e1bf31",
        "mixHash": "0x0000000000000000000000000000000000000000000000000000000000000000",
        "nonce": "0x0000000000000000",
        "number": "0x01",
        "parentHash": "0x2b253498ad5e63a16978753398bad1fde371a3e513438297b52d65dc98e1db29",
        "receiptTrie": "0x056b23fbba480696b65fe5a59b8f2148a1299103c4f57df839233af2cf4ca2d2",
        "stateRoot": "0x9f975da0cdc4d5f074009af73873d83f3e29d9e7f33fee3f11a38133166034e5",
        "timestamp": "0x54c99069",
        "transactionsTrie": "0x5c9151c2413d1cd25c51ffb4ac38948acc1359bf08c6b49f283660e9bcf0f516",
        "uncleHash": "0x1dcc4de8dec75d7aab85b567b6ccd41ad312451b948a7413f0a142fd40d49347"
      },
      "transactions": [
        {
          "data": "0x",
          "gasLimit": "0x04cb2f",
          "gasPrice": "0x01",
          "nonce": "0x00",
          "r": "0x77c7cd36820c71821c1aed59de46e70e701c4a8dd89c9ba508ab722210f60da8",
          "s": "0x3f29825d40c7c3f7bff3ca69267e0f3fb74b2d18b8c2c4e3c135b5d3b06e288d",
          "to": "0x095e7baea6a6c7c4c2dfeb977efac326af552d87",
          "v": "0x1b",
          "value": "0x0a"
        }
      ],
      "rlp": "0xf90261f901f9a02b253498ad5e63a16978753398bad1fde371a3e513438297b52d65dc98e1db29a01dcc4de8dec75d7aab85b567b6ccd41ad312451b948a7413f0a142fd40d49347948888f1f195afa192cfee860698584c030f4c9db1a09f975da0cdc4d5f074009af73873d83f3e29d9e7f33fee3f11a38133166034e5a05c9151c2413d1cd25c51ffb4ac38948acc1359bf08c6b49f283660e9bcf0f516a0056b23fbba480696b65fe5a59b8f2148a1299103c4f57df839233af2cf4ca2d2b90100000000000000000000000000000000000000000000000000000000000000000000000000000000000000000000000000000000000000000000000000000000000000000000000000000000000000000000000000000000000000000000000000000000000000000000000000000000000000000000000000000000000000000000000000000000000000000000000000000000000000000000000000000000000000000000000000000000000000000000000000000000000000000000000000000000000000000000000000000000000000000000000000000000000000000000000000000000000000000000000000000000000000000000000000000000008302000001832fefd88252088454c9906942a00000000000000000000000000000000000000000000000000000000000000000880000000000000000f862f86080018304cb2f94095e7baea6a6c7c4c2dfeb977efac326af552d870a801ba077c7cd36820c71821c1aed59de46e70e701c4a8dd89c9ba508ab722210f60da8a03f29825d40c7c3f7bff3ca69267e0f3fb74b2d18b8c2c4e3c135b5d3b06e288dc0"
    },
    {
      "chainname": "default",
      "blocknumber": "2",
      "uncleHeaders": [],
      "blockHeader": {
        "bloom": "0x00000000000000000000000000000000000000000000000000000000000000000000000000000000000000000000000000000000000000000000000000000000000000000000000000000000000000000000000000000000000000000000000000000000000000000000000000000000000000000000000000000000000000000000000000000000000000000000000000000000000000000000000000000000000000000000000000000000000000000000000000000000000000000000000000000000000000000000000000000000000000000000000000000000000000000000000000000000000000000000000000000000000000000000000000000000",
        "coinbase": "0x8888f1f195afa192cfee860698584c030f4c9db1",
        "difficulty": "0x020000",
        "extraData": "0x42",
        "gasLimit": "0x2fefd8",
        "gasUsed": "0x5208",
        "hash": "0x02350242f009d1bc334c055d5c3f366796f0a602a32b87ee7115db84d547dec2",
        "mixHash": "0x0000000000000000000000000000000000000000000000000000000000000000",
        "nonce": "0x0000000000000000",
        "number": "0x02",
        "parentHash": "0xb2c29779b51f0d912226d7741a5c65046d897236d1254391feac424fa1e1bf31",
        "receiptTrie": "0x056b23fbba480696b65fe5a59b8f2148a1299103c4f57df839233af2cf4ca2d2",
        "stateRoot": "0xdf68925b0ee17b44c826ce4537dc0924700f7b7aa1c7c1b1d489a779b1be2525",
        "timestamp": "0x54c99451",
        "transactionsTrie": "0xc673e076264c4669a5c2e479f1757b78e42511efe33b5fd2c0a23b929c7f87f5",
        "uncleHash": "0x1dcc4de8dec75d7aab85b567b6ccd41ad312451b948a7413f0a142fd40d49347"
      },
      "transactions": [
        {
          "data": "0x",
          "gasLimit": "0x04cb2f",
          "gasPrice": "0x01",
          "nonce": "0x01",
          "r": "0x33c86e64d708c97c6b135cadff79dbf45985aa0b53694789e90d15f756765f23",
          "s": "0x1d0f8caa2a16405148c9d85581be5814960010f3cba938b5501590cea1f7cf",
          "to": "0x095e7baea6a6c7c4c2dfeb977efac326af552d87",
          "v": "0x1b",
          "value": "0x0a"
        }
      ],
      "rlp": "0xf90260f901f9a0b2c29779b51f0d912226d7741a5c65046d897236d1254391feac424fa1e1bf31a01dcc4de8dec75d7aab85b567b6ccd41ad312451b948a7413f0a142fd40d49347948888f1f195afa192cfee860698584c030f4c9db1a0df68925b0ee17b44c826ce4537dc0924700f7b7aa1c7c1b1d489a779b1be2525a0c673e076264c4669a5c2e479f1757b78e42511efe33b5fd2c0a23b929c7f87f5a0056b23fbba480696b65fe5a59b8f2148a1299103c4f57df839233af2cf4ca2d2b90100000000000000000000000000000000000000000000000000000000000000000000000000000000000000000000000000000000000000000000000000000000000000000000000000000000000000000000000000000000000000000000000000000000000000000000000000000000000000000000000000000000000000000000000000000000000000000000000000000000000000000000000000000000000000000000000000000000000000000000000000000000000000000000000000000000000000000000000000000000000000000000000000000000000000000000000000000000000000000000000000000000000000000000000000000000008302000002832fefd88252088454c9945142a00000000000000000000000000000000000000000000000000000000000000000880000000000000000f861f85f01018304cb2f94095e7baea6a6c7c4c2dfeb977efac326af552d870a801ba033c86e64d708c97c6b135cadff79dbf45985aa0b53694789e90d15f756765f239f1d0f8caa2a16405148c9d85581be5814960010f3cba938b5501590cea1f7cfc0"
    },
    {
      "chainname": "default",
      "blocknumber": "3",
      "uncleHeaders": [
        {
          "bloom": "0x00000000000000000000000000000000000000000000000000000000000000000000000000000000000000000000000000000000000000000000000000000000000000000000000000000000000000000000000000000000000000000000000000000000000000000000000000000000000000000000000000000000000000000000000000000000000000000000000000000000000000000000000000000000000000000000000000000000000000000000000000000000000000000000000000000000000000000000000000000000000000000000000000000000000000000000000000000000000000000000000000000000000000000000000000000000",
          "coinbase": "0xb94f5374fce5ed0000000097c15331677e6ebf0b",
          "difficulty": "0x020000",
          "extraData": "0x42",
          "gasLimit": "0x2fefd8",
          "gasUsed": "0x00",
          "hash": "0x62f9a23a486f43c792befd29e22bb09da1d1ae14769ef4b3cbf6223ec34246dd",
          "mixHash": "0x0000000000000000000000000000000000000000000000000000000000000000",
          "nonce": "0x0000000000000000",
          "number": "0x02",
          "parentHash": "0xb2c29779b51f0d912226d7741a5c65046d897236d1254391feac424fa1e1bf31",
          "receiptTrie": "0x56e81f171bcc55a6ff8345e692c0f86e5b48e01b996cadc001622fb5e363b421",
          "stateRoot": "0xfe87abb0d3ab38d4eb64405de03db5245b0d40c4b85d8a1b5028ada8643de2db",
          "timestamp": "0x54c99451",
          "transactionsTrie": "0x56e81f171bcc55a6ff8345e692c0f86e5b48e01b996cadc001622fb5e363b421",
          "uncleHash": "0x1dcc4de8dec75d7aab85b567b6ccd41ad312451b948a7413f0a142fd40d49347"
        }
      ],
      "blockHeader": {
        "bloom": "0x00000000000000000000000000000000000000000000000000000000000000000000000000000000000000000000000000000000000000000000000000000000000000000000000000000000000000000000000000000000000000000000000000000000000000000000000000000000000000000000000000000000000000000000000000000000000000000000000000000000000000000000000000000000000000000000000000000000000000000000000000000000000000000000000000000000000000000000000000000000000000000000000000000000000000000000000000000000000000000000000000000000000000000000000000000000",
        "coinbase": "0x8888f1f195afa192cfee860698584c030f4c9db1",
        "difficulty": "0x020000",
        "extraData": "0x42",
        "gasLimit": "0x2fefd8",
        "gasUsed": "0x5208",
        "hash": "0x7196c8f0a4a138af6aa57ac5ba3702baa9838962c86706e868683fc02543e13c",
        "mixHash": "0x0000000000000000000000000000000000000000000000000000000000000000",
        "nonce": "0x0000000000000000",
        "number": "0x03",
        "parentHash": "0x02350242f009d1bc334c055d5c3f366796f0a602a32b87ee7115db84d547dec2",
        "receiptTrie": "0x056b23fbba480696b65fe5a59b8f2148a1299103c4f57df839233af2cf4ca2d2",
        "stateRoot": "0xdfdfd50db3c9075423f86f5ae262f2c73e6d27ade353b29e5da20439b00e3548",
        "timestamp": "0x54c99839",
        "transactionsTrie": "0x1722b8a91bfc4f5614ce36ee77c7cce6620ab4af36d3c54baa66d7dbeb7bce1a",
        "uncleHash": "0xeb6fefdb008e34f3ec507d07dc05b4f4e84bc2a8f2e93a9310e9de0547725fc7"
      },
      "transactions": [
        {
          "data": "0x",
          "gasLimit": "0x04cb2f",
          "gasPrice": "0x01",
          "nonce": "0x02",
          "r": "0x15eb1cc916728b9799e55c489857727669afb2986433d5f54cde11faaed9f0ee",
          "s": "0x5d36f6d06c34aae8d0a2a5895c8ba4a17ad46a5fa59f361cb3e7e01a23030e38",
          "to": "0x095e7baea6a6c7c4c2dfeb977efac326af552d87",
          "v": "0x1c",
          "value": "0x0a"
        }
      ],
      "rlp": "0xf9045df901f9a002350242f009d1bc334c055d5c3f366796f0a602a32b87ee7115db84d547dec2a0eb6fefdb008e34f3ec507d07dc05b4f4e84bc2a8f2e93a9310e9de0547725fc7948888f1f195afa192cfee860698584c030f4c9db1a0dfdfd50db3c9075423f86f5ae262f2c73e6d27ade353b29e5da20439b00e3548a01722b8a91bfc4f5614ce36ee77c7cce6620ab4af36d3c54baa66d7dbeb7bce1aa0056b23fbba480696b65fe5a59b8f2148a1299103c4f57df839233af2cf4ca2d2b90100000000000000000000000000000000000000000000000000000000000000000000000000000000000000000000000000000000000000000000000000000000000000000000000000000000000000000000000000000000000000000000000000000000000000000000000000000000000000000000000000000000000000000000000000000000000000000000000000000000000000000000000000000000000000000000000000000000000000000000000000000000000000000000000000000000000000000000000000000000000000000000000000000000000000000000000000000000000000000000000000000000000000000000000000000000008302000003832fefd88252088454c9983942a00000000000000000000000000000000000000000000000000000000000000000880000000000000000f862f86002018304cb2f94095e7baea6a6c7c4c2dfeb977efac326af552d870a801ca015eb1cc916728b9799e55c489857727669afb2986433d5f54cde11faaed9f0eea05d36f6d06c34aae8d0a2a5895c8ba4a17ad46a5fa59f361cb3e7e01a23030e38f901faf901f7a0b2c29779b51f0d912226d7741a5c65046d897236d1254391feac424fa1e1bf31a01dcc4de8dec75d7aab85b567b6ccd41ad312451b948a7413f0a142fd40d4934794b94f5374fce5ed0000000097c15331677e6ebf0ba0fe87abb0d3ab38d4eb64405de03db5245b0d40c4b85d8a1b5028ada8643de2dba056e81f171bcc55a6ff8345e692c0f86e5b48e01b996cadc001622fb5e363b421a056e81f171bcc55a6ff8345e692c0f86e5b48e01b996cadc001622fb5e363b421b90100000000000000000000000000000000000000000000000000000000000000000000000000000000000000000000000000000000000000000000000000000000000000000000000000000000000000000000000000000000000000000000000000000000000000000000000000000000000000000000000000000000000000000000000000000000000000000000000000000000000000000000000000000000000000000000000000000000000000000000000000000000000000000000000000000000000000000000000000000000000000000000000000000000000000000000000000000000000000000000000000000000000000000000000000000000008302000002832fefd8808454c9945142a00000000000000000000000000000000000000000000000000000000000000000880000000000000000"
    }
  ],
  "postState": {
    "0x095e7baea6a6c7c4c2dfeb977efac326af552d87": {
      "code": "0x",
      "nonce": "0x00",
      "balance": "0x1e",
      "storage": {}
    },
    "0x8888f1f195afa192cfee860698584c030f4c9db1": {
      "code": "0x",
      "nonce": "0x00",
      "balance": "0x542253a126cf3618",
      "storage": {}
    },
    "0xa94f5374fce5edbc8e2a8697c15331677e6ebf0b": {
      "code": "0x",
      "nonce": "0x03",
      "balance": "0x09184e71a9ca",
      "storage": {}
    },
    "0xb94f5374fce5ed0000000097c15331677e6ebf0b": {
      "code": "0x",
      "nonce": "0x00",
      "balance": "0x18493fba64ef0000",
      "storage": {}
    }
  },
  "lastblockhash": "0x7196c8f0a4a138af6aa57ac5ba3702baa9838962c86706e868683fc02543e13c"
}
