{
  "alloc": {
    "0x0000000000000000000000000000000000001000": {
      "code": "0x60ff5f5360015ff3",
      "balance": "0x0",
      "nonce": "0x1"
    },
    "0x0000000000000000000000000000000000001100": {
      "code": "0x60006000600060006000611000620186a0f1600055600160005560016000601f3e600051600155",
      "storage": {
        "0x0000000000000000000000000000000000000000000000000000000000000000": "0x0000000000000000000000000000000000000000000000000000000000000001",
        "0x0000000000000000000000000000000000000000000000000000000000000001": "0x00000000000000000000000000000000000000000000000000000000000000ff"
      },
      "balance": "0x0",
      "nonce": "0x1"
    },
    "0x2adc25665018aa1fe0e6bc666dac8fc2697ff9ba": {
      "balance": "0x31c8f"
    },
    "0xa94f5374fce5edbc8e2a8697c15331677e6ebf0b": {
      "balance": "0x3635c9adc5de95a0ce",
      "nonce": "0x1"
    }
  },
  "body": "0xf862f860800a830186a0940000000000000000000000000000000000001100808025a0450bb2501f58d443b494932d42891374385d2fef15af0090bf88adff0d247d6aa001f23877ce28d6d6986111de1b5594156a77690f214a2beba16f7556d3bf7a51",
  "result": {
    "stateRoot": "0x187e2ba0dad27c2c7384050e601724bb54673bfb9b7c82ce1217d3432a730c05",
    "txRoot": "0x56c81c68f1df70123bad2ce903057438aa4a2a2740a73cfc1d61d4b66ead583d",
    "receiptsRoot": "0x64d2b19c0d71c3f3fb78dc292f9c5c3a52eac4fbc43dbcb62c622ba33a9e56c8",
    "logsHash": "0x1dcc4de8dec75d7aab85b567b6ccd41ad312451b948a7413f0a142fd40d49347",
    "logsBloom": "0x00000000000000000000000000000000000000000000000000000000000000000000000000000000000000000000000000000000000000000000000000000000000000000000000000000000000000000000000000000000000000000000000000000000000000000000000000000000000000000000000000000000000000000000000000000000000000000000000000000000000000000000000000000000000000000000000000000000000000000000000000000000000000000000000000000000000000000000000000000000000000000000000000000000000000000000000000000000000000000000000000000000000000000000000000000000",
    "receipts": [
      {
        "root": "0x",
        "status": "0x1",
        "cumulativeGasUsed": "0x10985",
        "logsBloom": "0x00000000000000000000000000000000000000000000000000000000000000000000000000000000000000000000000000000000000000000000000000000000000000000000000000000000000000000000000000000000000000000000000000000000000000000000000000000000000000000000000000000000000000000000000000000000000000000000000000000000000000000000000000000000000000000000000000000000000000000000000000000000000000000000000000000000000000000000000000000000000000000000000000000000000000000000000000000000000000000000000000000000000000000000000000000000",
        "logs": null,
        "transactionHash": "0xb8da878f9f5e9334dede83c8ef7bc6831737b2bc1d277670300992fc8c7305ce",
        "contractAddress": "0x0000000000000000000000000000000000000000",
        "gasUsed": "0x10985",
        "effectiveGasPrice": null,
        "blockHash": "0x0000000000000000000000000000000000000000000000000000000000000000",
        "transactionIndex": "0x0"
      }
    ],
    "currentDifficulty": null,
    "gasUsed": "0x10985",
    "currentBaseFee": "0x7",
    "withdrawalsRoot": "0x56e81f171bcc55a6ff8345e692c0f86e5b48e01b996cadc001622fb5e363b421"
  }
}
