export const block = {
  network: 'Verkle',
  genesisBlockHeader: {
    parentHash: '0x0000000000000000000000000000000000000000000000000000000000000000',
    uncleHash: '0x1dcc4de8dec75d7aab85b567b6ccd41ad312451b948a7413f0a142fd40d49347',
    coinbase: '0x0000000000000000000000000000000000000000',
    stateRoot: '0x601d9c0f6f88478e1a26506ea9b7223dfd3a04c1bca81a9b593644f1061a8744',
    transactionsTrie: '0x56e81f171bcc55a6ff8345e692c0f86e5b48e01b996cadc001622fb5e363b421',
    receiptTrie: '0x56e81f171bcc55a6ff8345e692c0f86e5b48e01b996cadc001622fb5e363b421',
    bloom:
      '0x00000000000000000000000000000000000000000000000000000000000000000000000000000000000000000000000000000000000000000000000000000000000000000000000000000000000000000000000000000000000000000000000000000000000000000000000000000000000000000000000000000000000000000000000000000000000000000000000000000000000000000000000000000000000000000000000000000000000000000000000000000000000000000000000000000000000000000000000000000000000000000000000000000000000000000000000000000000000000000000000000000000000000000000000000000000',
    difficulty: '0x00',
    number: '0x00',
    gasLimit: '0x02540be400',
    gasUsed: '0x00',
    timestamp: '0x00',
    extraData: '0x00',
    mixHash: '0x0000000000000000000000000000000000000000000000000000000000000000',
    nonce: '0x0000000000000000',
    baseFeePerGas: '0x07',
    withdrawalsRoot: '0x56e81f171bcc55a6ff8345e692c0f86e5b48e01b996cadc001622fb5e363b421',
    hash: '0xd42bf44ca41d8dda57e734d933459dfc58d38bcd98d9e9dcfdf80e814bd8e6ac',
  },
  pre: {
    '0xfffffffffffffffffffffffffffffffffffffffe': {
      nonce: '0x01',
      balance: '0x00',
      code: '0x60203611603157600143035f35116029575f356120000143116029576120005f3506545f5260205ff35b5f5f5260205ff35b5f5ffd00',
      storage: {},
    },
    '0xa94f5374fce5edbc8e2a8697c15331677e6ebf0b': {
      nonce: '0x00',
      balance: '0x3635c9adc5dea00000',
      code: '0x',
      storage: {},
    },
    '0x8a0a19589531694250d570040a0c4b74576919b8': {
      nonce: '0x00',
      balance: '0x6c6b935b8bbd400001',
      code: '0x',
      storage: {},
    },
  },
  lastblockhash: '0x0742e32a754ef4c807b1fd507413af622f63e8f5e3e0a82521c526429cafb708',
  genesisRLP:
    '0xf9021af90214a00000000000000000000000000000000000000000000000000000000000000000a01dcc4de8dec75d7aab85b567b6ccd41ad312451b948a7413f0a142fd40d49347940000000000000000000000000000000000000000a0601d9c0f6f88478e1a26506ea9b7223dfd3a04c1bca81a9b593644f1061a8744a056e81f171bcc55a6ff8345e692c0f86e5b48e01b996cadc001622fb5e363b421a056e81f171bcc55a6ff8345e692c0f86e5b48e01b996cadc001622fb5e363b421b901000000000000000000000000000000000000000000000000000000000000000000000000000000000000000000000000000000000000000000000000000000000000000000000000000000000000000000000000000000000000000000000000000000000000000000000000000000000000000000000000000000000000000000000000000000000000000000000000000000000000000000000000000000000000000000000000000000000000000000000000000000000000000000000000000000000000000000000000000000000000000000000000000000000000000000000000000000000000000000000000000000000000000000000000000000000080808502540be400808000a0000000000000000000000000000000000000000000000000000000000000000088000000000000000007a056e81f171bcc55a6ff8345e692c0f86e5b48e01b996cadc001622fb5e363b421c0c0c0',
  blocks: [
    {
      blockHeader: {
        parentHash: '0xd42bf44ca41d8dda57e734d933459dfc58d38bcd98d9e9dcfdf80e814bd8e6ac',
        uncleHash: '0x1dcc4de8dec75d7aab85b567b6ccd41ad312451b948a7413f0a142fd40d49347',
        coinbase: '0x2adc25665018aa1fe0e6bc666dac8fc2697ff9ba',
        stateRoot: '0x63bba9295ed59e05dd27ad18296b307c83823b26b5857f2ed35977e969dfc2c7',
        transactionsTrie: '0x7de940fb8cb3445e096d5ecc4cf427a27c7645181496ebee60202350f9741d28',
        receiptTrie: '0x056b23fbba480696b65fe5a59b8f2148a1299103c4f57df839233af2cf4ca2d2',
        bloom:
          '0x00000000000000000000000000000000000000000000000000000000000000000000000000000000000000000000000000000000000000000000000000000000000000000000000000000000000000000000000000000000000000000000000000000000000000000000000000000000000000000000000000000000000000000000000000000000000000000000000000000000000000000000000000000000000000000000000000000000000000000000000000000000000000000000000000000000000000000000000000000000000000000000000000000000000000000000000000000000000000000000000000000000000000000000000000000000',
        difficulty: '0x00',
        number: '0x01',
        gasLimit: '0x02540be400',
        gasUsed: '0x5208',
        timestamp: '0x0c',
        extraData: '0x',
        mixHash: '0x0000000000000000000000000000000000000000000000000000000000000000',
        nonce: '0x0000000000000000',
        baseFeePerGas: '0x07',
        withdrawalsRoot: '0x56e81f171bcc55a6ff8345e692c0f86e5b48e01b996cadc001622fb5e363b421',
        hash: '0x0742e32a754ef4c807b1fd507413af622f63e8f5e3e0a82521c526429cafb708',
      },
      transactions: [
        {
          type: '0x00',
          chainId: '0x01',
          nonce: '0x00',
          gasPrice: '0x0a',
          gasLimit: '0x05f5e100',
          to: '0x8a0a19589531694250d570040a0c4b74576919b8',
          value: '0x01',
          data: '0x',
          v: '0x26',
          r: '0x7ad67da0d5c78f9c7ecad16fa4d8efa6e7d69bcff58cf2552fb64e4fcdc759b9',
          s: '0x4544452798d88492c290857ba40844aae5dc7a4f2b7780e59eb5169d61c14d8b',
          sender: '0xa94f5374fce5edbc8e2a8697c15331677e6ebf0b',
        },
      ],
      uncleHeaders: [],
      withdrawals: [],
      witness: {
        stateDiff: [
          {
            stem: '0x0365b079a274a1808d56484ce5bd97914629907d75767f51439102e22cd50d',
            suffixDiffs: [
              {
                suffix: 0,
                currentValue: '0x00000000000000000000000000000000000000000000003635c9adc5dea00000',
                newValue: '0x00000000000000000000000000000001000000000000003635c9adc5de9ccbaf',
              },
              {
                suffix: 1,
                currentValue: '0xc5d2460186f7233c927e7db2dcc703c0e500b653ca82273b7bfad8045d85a470',
                newValue: null,
              },
            ],
          },
          {
            stem: '0x5b5fdfedd6a0e932da408ac7d772a36513d1eee9b9926e52620c43a433aad7',
            suffixDiffs: [
              {
                suffix: 64,
                newValue: '0xd42bf44ca41d8dda57e734d933459dfc58d38bcd98d9e9dcfdf80e814bd8e6ac',
                currentValue: null,
              },
            ],
          },
          {
            stem: '0x914ec5f0e0c27fe094862fbd89a6abe684939af6940434d8bf218cedb2d624',
            suffixDiffs: [
              {
                suffix: 0,
                newValue: '0x000000000000000000000000000000000000000000000000000000000000f618',
                currentValue: null,
              },
              {
                suffix: 1,
                newValue: '0xc5d2460186f7233c927e7db2dcc703c0e500b653ca82273b7bfad8045d85a470',
                currentValue: null,
              },
            ],
          },
          {
            stem: '0xecb505156708480caf702cd85124f67f3ed78ae4bc890a6dcb62574ba9a90c',
            suffixDiffs: [
              {
                suffix: 0,
                currentValue: '0x00000000000000000000000000000000000000000000006c6b935b8bbd400001',
                newValue: '0x00000000000000000000000000000000000000000000006c6b935b8bbd400002',
              },
              {
                suffix: 1,
                currentValue: '0xc5d2460186f7233c927e7db2dcc703c0e500b653ca82273b7bfad8045d85a470',
                newValue: null,
              },
            ],
          },
        ],
        verkleProof: {
          otherStems: [],
          depthExtensionPresent: '0xa0a080a',
          commitmentsByPath: [
            '0x360bcc4c15a10f6f058d1d07e13e9a271da3da0cd69026d5a9ab25e1c0a5d697',
            '0x324e7b7405bbfae46866bad5c94ac2983093b86f85035fe5984ec40a1b5e5ce3',
            '0x61506c1cc4f27c9231a546a4b0d249d5f3ba4ba9e63c5ebb84087665eb396e95',
            '0x4909fc1889e10819cda41706a26373145c4e4575d68b96569af12db69040b6e1',
            '0x471fba998f1b0b37e9c0f4028371e81fc9c1d2760bc948a22854471e78900b4a',
            '0x5d99b80ace5dae1eef1c5f3447dc130670ecba8f59c7ec9acd49b14313cb27c6',
          ],
          d: '0x5896138aa1f7d730f4bcfef491a7fadd57a675c37a4e60d9552102064b9ee248',
          ipaProof: {
            cl: [
              '0x2b154cc292a8543bbf5269db3fd01eb729bd0b7ed6257469e88c85fb8def65b9',
              '0x2580af28b5682295a5d96de5220a29c3c91ef763a0f926abf634336e0231ad40',
              '0x0e1754dbb08dde1198a18623d6108800eddda196c58075b267935d7a528b8564',
              '0x52c2093047572bceff8ee6252983d9036743c113c41c5227444f4322edcb9ca0',
              '0x6fb9d80e5b8830cf753c5a6dc687d67442c14f464d824df3788a396667412827',
              '0x339e74100849df217d6860d6d09be429248cddc9bce4ac7bc601eb9317448f56',
              '0x388bd6c95ab3e546ec60a29561ba8177580b2d625d9a018df6b1ed98f1dcb359',
              '0x6a94e22bcf1333b9019ac8ad2ba69c9280b416b425745e351fe2a9a8d6241919',
            ],
            cr: [
              '0x5f692f51dff180ba9a3dc6dade8515159511c862331e77c28cd8bf3d7cb051f7',
              '0x73ba4863629c7d0f6f522336f3e0f2622b574dab56057a109f1669d87d5e69d8',
              '0x08c568b9388710be15fc8d58bedbdccb919088d7e2287dc7254bc6433850a3a9',
              '0x4a9096786f4be230fa621a630a4bc600073fd81f30aba20a39ae4bbef80c8a9d',
              '0x647053878ce01d33eb652bba1253cf790c0814f8f8f98edf8be54bd449a99534',
              '0x18119d5af107eab8080e3d414c9a3c2df4f326f785de32a8b5923e3b41cbfa02',
              '0x3ba1993057a05219dfbfea365d4529a9c20eb386254527c9f43d280fb95a08dd',
              '0x14e0513c21fd092a16128739ef0549ab4ee90bbbcb3228fcf25330b98b967076',
            ],
            finalEvaluation: '0x0161ffc3798b051155fa85cb57b183cc9e3c5f5c7ebc177fbb96ce63e34cd48e',
          },
        },
      },
      rlp: '0xf90280f90216a0d42bf44ca41d8dda57e734d933459dfc58d38bcd98d9e9dcfdf80e814bd8e6aca01dcc4de8dec75d7aab85b567b6ccd41ad312451b948a7413f0a142fd40d49347942adc25665018aa1fe0e6bc666dac8fc2697ff9baa063bba9295ed59e05dd27ad18296b307c83823b26b5857f2ed35977e969dfc2c7a07de940fb8cb3445e096d5ecc4cf427a27c7645181496ebee60202350f9741d28a0056b23fbba480696b65fe5a59b8f2148a1299103c4f57df839233af2cf4ca2d2b901000000000000000000000000000000000000000000000000000000000000000000000000000000000000000000000000000000000000000000000000000000000000000000000000000000000000000000000000000000000000000000000000000000000000000000000000000000000000000000000000000000000000000000000000000000000000000000000000000000000000000000000000000000000000000000000000000000000000000000000000000000000000000000000000000000000000000000000000000000000000000000000000000000000000000000000000000000000000000000000000000000000000000000000000000000000080018502540be4008252080c80a0000000000000000000000000000000000000000000000000000000000000000088000000000000000007a056e81f171bcc55a6ff8345e692c0f86e5b48e01b996cadc001622fb5e363b421f863f861800a8405f5e100948a0a19589531694250d570040a0c4b74576919b8018026a07ad67da0d5c78f9c7ecad16fa4d8efa6e7d69bcff58cf2552fb64e4fcdc759b9a04544452798d88492c290857ba40844aae5dc7a4f2b7780e59eb5169d61c14d8bc0c0',
      blocknumber: '1',
    },
  ],
  sealEngine: 'NoProof',
  _info: {
    hash: '0xd6362f69987bb17e2c2fbb7732eb15dafa77bde828e78792ac7e19bd335f4c7f',
    comment: '`execution-spec-tests` generated test',
    'filling-transition-tool': 'evm version 1.12.1-unstable-a00d50aa-20241001',
    description:
      'Test function documentation:\n\n    Test that value transfer generates a correct witness.',
    url: 'https://github.com/ethereum/execution-spec-tests/blob/verkle@v0.0.4/tests/verkle/eip4762_verkle_gas_witness/test_transfer.py#L33',
    'reference-spec': 'https://github.com/ethereum/EIPs/blob/master/EIPS/eip-4762.md',
    'reference-spec-version': '2f8299df31bb8173618901a03a8366a3183479b0',
  },
}
